S00F00005072656C6162342E737265638B
S11300000C9434000C9451000C9451000C94FE0098
S11300100C9451000C9451000C9451000C94510018
S11300200C9451000C9451000C9451000C94510008
S11300300C9451000C9451000C9451000C945100F8
S11300400C9451000C9451000C9451000C945100E8
S11300500C9451000C94D7000C9451000C94510052
S11300600C9451000C94510011241FBECFEFD8E022
S1130070DEBFCDBF11E0A0E0B1E0E8E5F2E002C0F0
S113008005900D92A031B107D9F721E0A0E1B1E0CC
S113009001C01D92A331B207E1F70E946D000C94D8
S11300A02A010C940000ECE7F0E086E08083808174
S11300B08064808380818F77808380818062808365
S11300C0EAE7F0E010828081886080838081876025
S11300D080838081806880830895F89484B1877FC9
S11300E084B985B1886085B984B18B7F84B985B1C1
S11300F0846085B98FEF8AB9E8E6F0E08081816099
S11301008083EBE6F0E080818C6080831BB81092E2
S1130110C1000E94530078948BB381608BBBEAE7E3
S1130120F0E0808180648083909179008091100157
S1130130891720F485B1806285B903C085B18F7DAC
S113014085B985B1816085B9E0911201F0E0E05094
S1130150FF4F80818BB98FE19EE40197F1F700C0D6
S1130160000085B18E7F85B985B1826085B9E09143
S11301701101F0E0E050FF4F80818BB98FE19EE4E4
S11301800197F1F700C0000085B18D7F85B985B175
S1130190806185B9809110018BB98FE19EE401974C
S11301A0F1F700C0000085B18F7E85B9B8CF1F92EA
S11301B00F920FB60F9211248F939F93EF93FF9397
S11301C08091780090917900EAE7F0E08081806185
S11301D08083892F82958F7080931201892F8F706D
S11301E080931101808180648083FF91EF919F91BE
S11301F08F910F900FBE0F901F9018951F920F9222
S11302000FB60F9211248F939F931A990DC08FE10B
S11302109EE40197F1F700C000001A9905C080918F
S113022010018F5F809310011B990DC08FE19EE434
S11302300197F1F700C000001B9905C080911001DF
S11302408150809310019F918F910F900FBE0F905A
S10B02501F901895F894FFCFEC
S11302587E0CB69ECCDAFA0EFEDEEEF872BCF2E242
S9030000FC
